:100000000C9462000C948A000C948A000C948A0070
:100010000C948A000C948A000C948A000C948A0038
:100020000C948A000C948A000C948A000C94BA02F6
:100030000C948A000C948A000C948A000C948A0018
:100040000C9470020C948A000C948A000C948A0020
:100050000C948A000C948A000C948A000C948A00F8
:100060000C948A000C948A000000000024002700F1
:100070002A0000000000250028002B0000000000DE
:1000800023002600290004040404040404040202DA
:100090000202020203030303030301020408102007
:1000A0004080010204081020010204081020000012
:1000B0000008000201000003040700000000000027
:1000C0000000C40511241FBECFEFD8E0DEBFCDBFB6
:1000D00011E0A0E0B1E0E6EAFDE002C005900D927B
:1000E000A632B107D9F721E0A6E2B1E001C01D9226
:1000F000A23DB207E1F710E0C2E6D0E004C02197CC
:10010000FE010E94C206C136D107C9F70E947603DC
:100110000C94D1060C9400008F929F92AF92BF92E4
:10012000FF920F931F93CF93DF93F090CF012BE0BB
:100130002F1508F44CC02091D10108E512E0021BF4
:10014000110927FD1395000F111F000F111F20919A
:10015000D001C8E8D0E0C21BD10927FDD395CC0F50
:10016000DD1FCC0FDD1F4E010D2E000CAA08BB08B1
:100170009801012E000C440B550B281939094A0926
:100180005B09DC010E94550624EB30E040E050E0C2
:100190000E942B06820E931EA41EB51E8C169D0671
:1001A0002CF0E801801691060CF4E4012297CC0FA4
:1001B000DD1F2FB7F8948F2D90E0FC01EE0FFF1F8D
:1001C000E80FF91FE555FE4FD283C1832FBFDF91A2
:1001D000CF911F910F91FF90BF90AF909F908F9004
:1001E000089596E0899FD0011124A45CBE4F90969B
:1001F0007C936E935F9791E091969C939197E09199
:10020000A901F091AA019091A801992339F03097A2
:1002100051F0811108C0809158010994309719F06C
:100220005C968C91FACF0895CF92DF92EF92FF9275
:100230000F931F9396E0899FF0011124E45CFE4F19
:1002400011A2278D30A12130310551F178F02230F3
:10025000310509F451C02330310509F452C01F9112
:100260000F91FF90EF90DF90CF9008956623B9F340
:1002700061E070E00E94F1002FB7F894809138019E
:1002800090913901A0913A01B0913B012FBF809329
:10029000940190939501A0939601B0939701DFCFBD
:1002A0009FB7F894C0903801D0903901E0903A019E
:1002B000F0903B019FBF0091940110919501209116
:1002C000960130919701C01AD10AE20AF30A00910F
:1002D000A6011091A70130E020E00C151D052E05A8
:1002E0003F0550F462E070E01F910F91FF90EF9096
:1002F000DF90CF900C94F1006111B1CF63E070E01A
:10030000F3CF70E060E0F0CF833081F028F48130EB
:1003100099F08230A9F008958730A9F08830C9F0AB
:100320008430B1F4809180008F7D03C08091800083
:100330008F7780938000089584B58F7784BD08956A
:1003400084B58F7DFBCF8091B0008F778093B00014
:1003500008958091B0008F7DF9CFCF93DF93282F40
:1003600030E0F901E255FF4F8491F901E656FF4F65
:10037000D491F901EA57FF4FC491CC23A1F0811128
:100380000E948401EC2FF0E0EE0FFF1FE458FF4FB6
:10039000A591B491EC91ED2381E090E009F480E027
:1003A000DF91CF91089580E090E0FACF862F0C94F2
:1003B000AD011F93CF93DF93282F30E0F901E25571
:1003C000FF4F8491F901E656FF4FD491F901EA57A6
:1003D000FF4FC491CC23A9F0162F81110E948401F4
:1003E000EC2FF0E0EE0FFF1FEE58FF4FA591B491F8
:1003F0008FB7F894EC91111108C0D095DE23DC93EF
:100400008FBFDF91CF911F910895DE2BF8CF862FFC
:10041000642F0C94D901CF93DF9390E0FC01E65652
:10042000FF4F24918A579F4FFC0184918823C9F084
:1004300090E0880F991FFC01E859FF4FA591B491F6
:10044000FC01EE58FF4FC591D49161110DC09FB7CB
:10045000F8948C91209582238C938881282328837B
:100460009FBFDF91CF910895623051F49FB7F89408
:100470003C91822F809583238C93E8812E2BEFCFA4
:100480008FB7F894EC912E2B2C938FBFEACF862F49
:10049000642F0C940B023FB7F8948091290190913E
:1004A0002A01A0912B01B0912C0126B5A89B05C073
:1004B0002F3F19F00196A11DB11D3FBFBA2FA92FE3
:1004C000982F8827BC01CD01620F711D811D911DE0
:1004D00042E0660F771F881F991F4A95D1F708954C
:1004E0001F920F920FB60F9211242F933F938F9369
:1004F0009F93AF93BF938091380190913901A09160
:100500003A01B0913B013091280123E0230F2D37B0
:1005100058F50196A11DB11D209328018093380143
:1005200090933901A0933A01B0933B018091290146
:1005300090912A01A0912B01B0912C010196A11D4F
:10054000B11D8093290190932A01A0932B01B093B0
:100550002C01BF91AF919F918F913F912F910F905F
:100560000FBE0F901F90189526E8230F0296A11D2D
:10057000B11DD2CF1F920F920FB60F9211242F935D
:100580003F934F935F936F937F938F939F93AF931B
:10059000BF93CF93DF93EF93FF9380912701C09197
:1005A0002601D0E087FF24C01092850010928400BD
:1005B000809127018F5F8093270180912701082E6A
:1005C000000C990B8C179D0724F4809127018C3027
:1005D000C4F18091840090918500049680349C49F8
:1005E00008F47AC08091840090918500049676C0CA
:1005F00080912701082E000C990B8C179D07C4F6DB
:10060000E09127018E2FEE0F990BFC01EE0FFF1FDB
:10061000E80FF91FE555FE4F808186FFC9CFE091B5
:1006200027018E2FEE0F990BFC01EE0FFF1FE80F35
:10063000F91FE555FE4F808160E08F730E94D9015C
:10064000B7CF2091840030918500E09127018E2F53
:10065000EE0F990BFC01EE0FFF1FE80FF91FE55598
:10066000FE4F81819281820F931F90938900809326
:100670008800E09127018E2FEE0F990BFC01EE0F01
:10068000FF1FE80FF91FE555FE4F808186FF11C05F
:10069000E09127018E2FEE0F990BFC01EE0FFF1F4B
:1006A000E80FF91FE555FE4F808161E08F730E94CE
:1006B000D901FF91EF91DF91CF91BF91AF919F91C0
:1006C0008F917F916F915F914F913F912F910F90FB
:1006D0000FBE0F901F90189580E49CE990938900BD
:1006E000809388008FEF80932701E3CF789484B5BF
:1006F000826084BD84B5816084BD85B5826085BD1E
:1007000085B5816085BD80916E00816080936E00AB
:10071000109281008091810082608093810080919D
:10072000810081608093810080918000816080934E
:1007300080008091B10084608093B1008091B0000E
:1007400081608093B00080917A00846080937A0009
:1007500080917A00826080937A0080917A00816033
:1007600080937A0080917A00806880937A0010925A
:10077000C1008091CF018C3008F051C061E08BE066
:100780000E940B028091CF01282F30E0F901EE0F7B
:10079000FF1FE20FF31FE555FE4F9081907C9B6099
:1007A00090831092D0011092D1012CE0622F0E9410
:1007B0008E06829FB001112430E020E0AB01420F91
:1007C000531FFA01EE0FFF1FE40FF51FE555FE4F13
:1007D000908196FD16C02F5F3F4F2C30310571F789
:1007E00081110FC01092800082E0809381001092EE
:1007F000850010928400B19A80916F00826080938E
:100800006F00E091CF018E2F90E0FC01EE0FFF1FF3
:10081000E80FF91FE555FE4F808180648083812CAD
:10082000912C5401839440E0642E40E0742E8AE5BC
:1008300090E00E948C0021E02093A8018FB7F894EB
:10084000409138015091390160913A0170913B011A
:100850008FBF8091980190919901A0919A01B091D8
:100860009B01481B590B6A0B7B0B8091A401909153
:10087000A501B0E0A0E084179507A607B70708F028
:1008800015C1C0E08091A201C81760F4E0919E01FB
:10089000F0919F01EC0FF11D62E080810E940B023C
:1008A000CF5FF0CF512C8091A301581608F05FC0A4
:1008B000052D10E0E091A001F091A101E00FF11FE2
:1008C00061E080810E940B02E091A001F091A10102
:1008D000E00FF11F60E080810E94D901D501C401C1
:1008E000052C04C0880F991FAA1FBB1F0A94D2F7BA
:1008F0006C017C01E094F094412C8091A201481697
:10090000F8F4C42DD0E0E0919E01F0919F01EC0F2E
:10091000FD1F80810E94AD012496CC0FDD1FC45CB9
:10092000DE4F892B41F4888199818C299D299983F7
:1009300088834394E2CF888199818E219F21F7CFCC
:10094000E091A001F091A101E00FF11F61E0808131
:100950000E94D9018091A0019091A101080F191F57
:1009600060E0F80180810E940B0253949CCF0CE35D
:1009700011E0E8018F8D98A1892B31F41C8E8FEF47
:100980009FEF9E8F8D8F19A2269691E0C837D907C9
:1009900089F7F12C8091A201F81608F053C0E12CE0
:1009A000CF2CD12CCC0CDD1CF601EC5BFE4F6F0183
:1009B0002091A301E21608F043C0F6016081718125
:1009C0000E2C02C0769567950A94E2F7F29E90018C
:1009D00011242E0D311DECE3F1E080E0458D568DA4
:1009E0002417350709F4CEC08F5F36968A30B1F7E9
:1009F00060FF24C0ECE3F1E090E080E0448D411121
:100A000018C0E0919C01F0919D01E20FF31F40811D
:100A100056E0589FF001599FF00D1124E45CFE4F01
:100A2000448F368F258F10A2178E61E00E9414012B
:100A300005C0019636968A30910501F7E394B8CF48
:100A4000F394A8CF80E0F80191A19111892F0A5F5A
:100A50001F4FC017D107B9F79FB7F89440913801DD
:100A60005091390160913A0170913B019FBF4093D1
:100A700098015093990160939A0170939B01882388
:100A8000A9F080915D01882389F080915B019091AC
:100A90005C01019759F42091580121110AC0611499
:100AA000710409F4C4CE0E940000C1CE1092A801C6
:100AB000F6CF233219F02A3209F050C06DE171E00F
:100AC0008DE291E00E94C806892B99F5809136014C
:100AD000909137010B9769F590E080E00E948C00BF
:100AE0000E944B021B012C0188EBC82E8BE0D82EF4
:100AF000E12CF12C0E944B026219730984099509BB
:100B0000683E734081059105A8F3F1E0CF1AD10842
:100B1000E108F10828EE220E23E0321E411C511C90
:100B2000C114D104E104F10429F78AE590E00E94A0
:100B30008C00109237011092360110922D01109204
:100B40002E0110922F01109230011092310110925B
:100B500032011092330110923401A1CF80913601FD
:100B600090913701AC014F5F5F4F50933701409335
:100B7000360168E070E00E949A06FC01E35DFE4FDA
:100B800020838DCF617052CF809126018C3008F088
:100B90005EC091E0980F909326018093CF0190E082
:100BA000FC01EE0FFF1FE80FF91FE555FE4F88EB24
:100BB0009BE09283818310923E0110924201109239
:100BC00041011092430187E191E090933D018093B0
:100BD0003C01E8E5F1E0108214821382158236961A
:100BE00081E0E439F807B9F783E091E090939F0141
:100BF00080939E0180E091E09093A1018093A001F9
:100C000084E08093A20183E08093A30187E091E0D8
:100C100090939D0180939C018AE090E09093A501C0
:100C20008093A40184EF91E09093A7018093A601A3
:100C30001092AA011092A9011092980110929901A4
:100C400010929A0110929B011092A80108958FEFC3
:100C50008093CF01B0CF052E97FB1EF400940E9425
:100C6000420657FD07D00E945D0607FC03D04EF4F4
:100C70000C94420650954095309521953F4F4F4F2B
:100C80005F4F089590958095709561957F4F8F4F38
:100C90009F4F08950E947F06A59F900DB49F900DD1
:100CA000A49F800D911D11240895B7FF0C944A064E
:100CB0000E944A06821B930B0895A1E21A2EAA1BDA
:100CC000BB1BFD010DC0AA1FBB1FEE1FFF1FA217FC
:100CD000B307E407F50720F0A21BB30BE40BF50BF9
:100CE000661F771F881F991F1A9469F76095709582
:100CF000809590959B01AC01BD01CF010895A29F05
:100D0000B001B39FC001A39F700D811D1124911DDF
:100D1000B29F700D811D1124911D0895991B79E0DA
:100D200004C0991F961708F0961B881F7A95C9F77B
:100D30008095089597FB072E16F4009407D077FD51
:100D400009D00E94AE0607FC05D03EF4909581952F
:100D50009F4F0895709561957F4F0895AA1BBB1B07
:100D600051E107C0AA1FBB1FA617B70710F0A61BAB
:100D7000B70B881F991F5A95A9F780959095BC01CC
:100D8000CD010895EE0FFF1F0590F491E02D099419
:100D9000FB01DC018D91019080190110D9F3990BB1
:060DA0000895F894FFCF56
:100DA6000304050607080931323334353637383936
:100DB6002A30230000000047020702D601373334E9
:060DC60035323931320024
:00000001FF
